{
  "_format": "hh-sol-artifact-1",
  "contractName": "MyEpicGame",
  "sourceName": "contracts/MyEpicGame.sol",
  "abi": [
    {
      "inputs": [
        {
          "internalType": "string[]",
          "name": "heroNames",
          "type": "string[]"
        },
        {
          "internalType": "string[]",
          "name": "heroImageURIs",
          "type": "string[]"
        },
        {
          "internalType": "uint256[]",
          "name": "heroHp",
          "type": "uint256[]"
        },
        {
          "internalType": "uint256[]",
          "name": "heroAttackDmg",
          "type": "uint256[]"
        },
        {
          "internalType": "string",
          "name": "bossName",
          "type": "string"
        },
        {
          "internalType": "string",
          "name": "bossImageURI",
          "type": "string"
        },
        {
          "internalType": "uint256",
          "name": "bossHp",
          "type": "uint256"
        },
        {
          "internalType": "uint256",
          "name": "bossAttackDamage",
          "type": "uint256"
        }
      ],
      "stateMutability": "nonpayable",
      "type": "constructor"
    },
    {
      "anonymous": false,
      "inputs": [
        {
          "indexed": true,
          "internalType": "address",
          "name": "owner",
          "type": "address"
        },
        {
          "indexed": true,
          "internalType": "address",
          "name": "approved",
          "type": "address"
        },
        {
          "indexed": true,
          "internalType": "uint256",
          "name": "tokenId",
          "type": "uint256"
        }
      ],
      "name": "Approval",
      "type": "event"
    },
    {
      "anonymous": false,
      "inputs": [
        {
          "indexed": true,
          "internalType": "address",
          "name": "owner",
          "type": "address"
        },
        {
          "indexed": true,
          "internalType": "address",
          "name": "operator",
          "type": "address"
        },
        {
          "indexed": false,
          "internalType": "bool",
          "name": "approved",
          "type": "bool"
        }
      ],
      "name": "ApprovalForAll",
      "type": "event"
    },
    {
      "anonymous": false,
      "inputs": [
        {
          "indexed": false,
          "internalType": "uint256",
          "name": "newBossHp",
          "type": "uint256"
        },
        {
          "indexed": false,
          "internalType": "uint256",
          "name": "newPlayerHp",
          "type": "uint256"
        }
      ],
      "name": "AttackComplete",
      "type": "event"
    },
    {
      "anonymous": false,
      "inputs": [
        {
          "indexed": false,
          "internalType": "address",
          "name": "sender",
          "type": "address"
        },
        {
          "indexed": false,
          "internalType": "uint256",
          "name": "tokenId",
          "type": "uint256"
        },
        {
          "indexed": false,
          "internalType": "uint256",
          "name": "characterIndex",
          "type": "uint256"
        }
      ],
      "name": "HeroNFTMinted",
      "type": "event"
    },
    {
      "anonymous": false,
      "inputs": [
        {
          "indexed": true,
          "internalType": "address",
          "name": "from",
          "type": "address"
        },
        {
          "indexed": true,
          "internalType": "address",
          "name": "to",
          "type": "address"
        },
        {
          "indexed": true,
          "internalType": "uint256",
          "name": "tokenId",
          "type": "uint256"
        }
      ],
      "name": "Transfer",
      "type": "event"
    },
    {
      "inputs": [
        {
          "internalType": "address",
          "name": "to",
          "type": "address"
        },
        {
          "internalType": "uint256",
          "name": "tokenId",
          "type": "uint256"
        }
      ],
      "name": "approve",
      "outputs": [],
      "stateMutability": "nonpayable",
      "type": "function"
    },
    {
      "inputs": [],
      "name": "attackBoss",
      "outputs": [],
      "stateMutability": "nonpayable",
      "type": "function"
    },
    {
      "inputs": [
        {
          "internalType": "address",
          "name": "owner",
          "type": "address"
        }
      ],
      "name": "balanceOf",
      "outputs": [
        {
          "internalType": "uint256",
          "name": "",
          "type": "uint256"
        }
      ],
      "stateMutability": "view",
      "type": "function"
    },
    {
      "inputs": [],
      "name": "bigBoss",
      "outputs": [
        {
          "internalType": "string",
          "name": "name",
          "type": "string"
        },
        {
          "internalType": "string",
          "name": "imageURI",
          "type": "string"
        },
        {
          "internalType": "uint256",
          "name": "hp",
          "type": "uint256"
        },
        {
          "internalType": "uint256",
          "name": "maxHp",
          "type": "uint256"
        },
        {
          "internalType": "uint256",
          "name": "attackDamage",
          "type": "uint256"
        }
      ],
      "stateMutability": "view",
      "type": "function"
    },
    {
      "inputs": [],
      "name": "checkIfUserHasNFT",
      "outputs": [
        {
          "components": [
            {
              "internalType": "uint256",
              "name": "characterIndex",
              "type": "uint256"
            },
            {
              "internalType": "string",
              "name": "name",
              "type": "string"
            },
            {
              "internalType": "string",
              "name": "imageURI",
              "type": "string"
            },
            {
              "internalType": "uint256",
              "name": "hp",
              "type": "uint256"
            },
            {
              "internalType": "uint256",
              "name": "maxHp",
              "type": "uint256"
            },
            {
              "internalType": "uint256",
              "name": "attackDamage",
              "type": "uint256"
            }
          ],
          "internalType": "struct MyEpicGame.HeroAttributes",
          "name": "",
          "type": "tuple"
        }
      ],
      "stateMutability": "view",
      "type": "function"
    },
    {
      "inputs": [],
      "name": "getAllDefaultcharacters",
      "outputs": [
        {
          "components": [
            {
              "internalType": "uint256",
              "name": "characterIndex",
              "type": "uint256"
            },
            {
              "internalType": "string",
              "name": "name",
              "type": "string"
            },
            {
              "internalType": "string",
              "name": "imageURI",
              "type": "string"
            },
            {
              "internalType": "uint256",
              "name": "hp",
              "type": "uint256"
            },
            {
              "internalType": "uint256",
              "name": "maxHp",
              "type": "uint256"
            },
            {
              "internalType": "uint256",
              "name": "attackDamage",
              "type": "uint256"
            }
          ],
          "internalType": "struct MyEpicGame.HeroAttributes[]",
          "name": "",
          "type": "tuple[]"
        }
      ],
      "stateMutability": "view",
      "type": "function"
    },
    {
      "inputs": [
        {
          "internalType": "uint256",
          "name": "tokenId",
          "type": "uint256"
        }
      ],
      "name": "getApproved",
      "outputs": [
        {
          "internalType": "address",
          "name": "",
          "type": "address"
        }
      ],
      "stateMutability": "view",
      "type": "function"
    },
    {
      "inputs": [],
      "name": "getBigBoss",
      "outputs": [
        {
          "components": [
            {
              "internalType": "string",
              "name": "name",
              "type": "string"
            },
            {
              "internalType": "string",
              "name": "imageURI",
              "type": "string"
            },
            {
              "internalType": "uint256",
              "name": "hp",
              "type": "uint256"
            },
            {
              "internalType": "uint256",
              "name": "maxHp",
              "type": "uint256"
            },
            {
              "internalType": "uint256",
              "name": "attackDamage",
              "type": "uint256"
            }
          ],
          "internalType": "struct MyEpicGame.BigBoss",
          "name": "",
          "type": "tuple"
        }
      ],
      "stateMutability": "view",
      "type": "function"
    },
    {
      "inputs": [
        {
          "internalType": "address",
          "name": "owner",
          "type": "address"
        },
        {
          "internalType": "address",
          "name": "operator",
          "type": "address"
        }
      ],
      "name": "isApprovedForAll",
      "outputs": [
        {
          "internalType": "bool",
          "name": "",
          "type": "bool"
        }
      ],
      "stateMutability": "view",
      "type": "function"
    },
    {
      "inputs": [
        {
          "internalType": "uint256",
          "name": "_heroIndex",
          "type": "uint256"
        }
      ],
      "name": "mintHeroNFT",
      "outputs": [],
      "stateMutability": "nonpayable",
      "type": "function"
    },
    {
      "inputs": [],
      "name": "name",
      "outputs": [
        {
          "internalType": "string",
          "name": "",
          "type": "string"
        }
      ],
      "stateMutability": "view",
      "type": "function"
    },
    {
      "inputs": [
        {
          "internalType": "uint256",
          "name": "",
          "type": "uint256"
        }
      ],
      "name": "nftHolderAttributes",
      "outputs": [
        {
          "internalType": "uint256",
          "name": "characterIndex",
          "type": "uint256"
        },
        {
          "internalType": "string",
          "name": "name",
          "type": "string"
        },
        {
          "internalType": "string",
          "name": "imageURI",
          "type": "string"
        },
        {
          "internalType": "uint256",
          "name": "hp",
          "type": "uint256"
        },
        {
          "internalType": "uint256",
          "name": "maxHp",
          "type": "uint256"
        },
        {
          "internalType": "uint256",
          "name": "attackDamage",
          "type": "uint256"
        }
      ],
      "stateMutability": "view",
      "type": "function"
    },
    {
      "inputs": [
        {
          "internalType": "address",
          "name": "",
          "type": "address"
        }
      ],
      "name": "nftHolders",
      "outputs": [
        {
          "internalType": "uint256",
          "name": "",
          "type": "uint256"
        }
      ],
      "stateMutability": "view",
      "type": "function"
    },
    {
      "inputs": [
        {
          "internalType": "uint256",
          "name": "tokenId",
          "type": "uint256"
        }
      ],
      "name": "ownerOf",
      "outputs": [
        {
          "internalType": "address",
          "name": "",
          "type": "address"
        }
      ],
      "stateMutability": "view",
      "type": "function"
    },
    {
      "inputs": [
        {
          "internalType": "address",
          "name": "from",
          "type": "address"
        },
        {
          "internalType": "address",
          "name": "to",
          "type": "address"
        },
        {
          "internalType": "uint256",
          "name": "tokenId",
          "type": "uint256"
        }
      ],
      "name": "safeTransferFrom",
      "outputs": [],
      "stateMutability": "nonpayable",
      "type": "function"
    },
    {
      "inputs": [
        {
          "internalType": "address",
          "name": "from",
          "type": "address"
        },
        {
          "internalType": "address",
          "name": "to",
          "type": "address"
        },
        {
          "internalType": "uint256",
          "name": "tokenId",
          "type": "uint256"
        },
        {
          "internalType": "bytes",
          "name": "_data",
          "type": "bytes"
        }
      ],
      "name": "safeTransferFrom",
      "outputs": [],
      "stateMutability": "nonpayable",
      "type": "function"
    },
    {
      "inputs": [
        {
          "internalType": "address",
          "name": "operator",
          "type": "address"
        },
        {
          "internalType": "bool",
          "name": "approved",
          "type": "bool"
        }
      ],
      "name": "setApprovalForAll",
      "outputs": [],
      "stateMutability": "nonpayable",
      "type": "function"
    },
    {
      "inputs": [
        {
          "internalType": "bytes4",
          "name": "interfaceId",
          "type": "bytes4"
        }
      ],
      "name": "supportsInterface",
      "outputs": [
        {
          "internalType": "bool",
          "name": "",
          "type": "bool"
        }
      ],
      "stateMutability": "view",
      "type": "function"
    },
    {
      "inputs": [],
      "name": "symbol",
      "outputs": [
        {
          "internalType": "string",
          "name": "",
          "type": "string"
        }
      ],
      "stateMutability": "view",
      "type": "function"
    },
    {
      "inputs": [
        {
          "internalType": "uint256",
          "name": "_tokenId",
          "type": "uint256"
        }
      ],
      "name": "tokenURI",
      "outputs": [
        {
          "internalType": "string",
          "name": "",
          "type": "string"
        }
      ],
      "stateMutability": "view",
      "type": "function"
    },
    {
      "inputs": [
        {
          "internalType": "address",
          "name": "from",
          "type": "address"
        },
        {
          "internalType": "address",
          "name": "to",
          "type": "address"
        },
        {
          "internalType": "uint256",
          "name": "tokenId",
          "type": "uint256"
        }
      ],
      "name": "transferFrom",
      "outputs": [],
      "stateMutability": "nonpayable",
      "type": "function"
    }
  ],
  "bytecode": "0x60806040523480156200001157600080fd5b50604051620058a3380380620058a3833981810160405281019062000037919062000a59565b6040518060400160405280600581526020017f4865726f730000000000000000000000000000000000000000000000000000008152506040518060400160405280600481526020017f4845524f000000000000000000000000000000000000000000000000000000008152508160009080519060200190620000bb929190620007ec565b508060019080519060200190620000d4929190620007ec565b5050506040518060a0016040528085815260200184815260200183815260200183815260200182815250600a60008201518160000190805190602001906200011e929190620007ec565b5060208201518160010190805190602001906200013d929190620007ec565b50604082015181600201556060820151816003015560808201518160040155905050620002c06040518060600160405280602a815260200162005879602a9139600a60000180546200018f9062000d7f565b80601f0160208091040260200160405190810160405280929190818152602001828054620001bd9062000d7f565b80156200020e5780601f10620001e2576101008083540402835291602001916200020e565b820191906000526020600020905b815481529060010190602001808311620001f057829003601f168201915b5050505050600a60020154600a60010180546200022b9062000d7f565b80601f0160208091040260200160405190810160405280929190818152602001828054620002599062000d7f565b8015620002aa5780601f106200027e57610100808354040283529160200191620002aa565b820191906000526020600020905b8154815290600101906020018083116200028c57829003601f168201915b50505050506200070160201b62001bd51760201c565b60005b8851811015620006db5760076040518060c001604052808381526020018b84815181106200031a577f4e487b7100000000000000000000000000000000000000000000000000000000600052603260045260246000fd5b602002602001015181526020018a848151811062000361577f4e487b7100000000000000000000000000000000000000000000000000000000600052603260045260246000fd5b60200260200101518152602001898481518110620003a8577f4e487b7100000000000000000000000000000000000000000000000000000000600052603260045260246000fd5b60200260200101518152602001898481518110620003ef577f4e487b7100000000000000000000000000000000000000000000000000000000600052603260045260246000fd5b6020026020010151815260200188848151811062000436577f4e487b7100000000000000000000000000000000000000000000000000000000600052603260045260246000fd5b6020026020010151815250908060018154018082558091505060019003906000526020600020906006020160009091909190915060008201518160000155602082015181600101908051906020019062000492929190620007ec565b506040820151816002019080519060200190620004b1929190620007ec565b50606082015181600301556080820151816004015560a0820151816005015550506000600782815481106200050f577f4e487b7100000000000000000000000000000000000000000000000000000000600052603260045260246000fd5b90600052602060002090600602016040518060c001604052908160008201548152602001600182018054620005449062000d7f565b80601f0160208091040260200160405190810160405280929190818152602001828054620005729062000d7f565b8015620005c35780601f106200059757610100808354040283529160200191620005c3565b820191906000526020600020905b815481529060010190602001808311620005a557829003601f168201915b50505050508152602001600282018054620005de9062000d7f565b80601f01602080910402602001604051908101604052809291908181526020018280546200060c9062000d7f565b80156200065d5780601f1062000631576101008083540402835291602001916200065d565b820191906000526020600020905b8154815290600101906020018083116200063f57829003601f168201915b5050505050815260200160038201548152602001600482015481526020016005820154815250509050620006c460405180606001604052806025815260200162005854602591398260200151836060015184604001516200070160201b62001bd51760201c565b508080620006d29062000deb565b915050620002c3565b50620006f36006620007ad60201b62001c771760201c565b505050505050505062000ef1565b620007a7848484846040516024016200071e949392919062000c04565b6040516020818303038152906040527f8d142cdd000000000000000000000000000000000000000000000000000000007bffffffffffffffffffffffffffffffffffffffffffffffffffffffff19166020820180517bffffffffffffffffffffffffffffffffffffffffffffffffffffffff8381831617835250505050620007c360201b60201c565b50505050565b6001816000016000828254019250508190555050565b60008151905060006a636f6e736f6c652e6c6f679050602083016000808483855afa5050505050565b828054620007fa9062000d7f565b90600052602060002090601f0160209004810192826200081e57600085556200086a565b82601f106200083957805160ff19168380011785556200086a565b828001600101855582156200086a579182015b82811115620008695782518255916020019190600101906200084c565b5b5090506200087991906200087d565b5090565b5b80821115620008985760008160009055506001016200087e565b5090565b6000620008b3620008ad8462000c8f565b62000c66565b9050808382526020820190508260005b85811015620008f75781518501620008dc888262000a15565b845260208401935060208301925050600181019050620008c3565b5050509392505050565b600062000918620009128462000cbe565b62000c66565b905080838252602082019050828560208602820111156200093857600080fd5b60005b858110156200096c578162000951888262000a42565b8452602084019350602083019250506001810190506200093b565b5050509392505050565b60006200098d620009878462000ced565b62000c66565b905082815260208101848484011115620009a657600080fd5b620009b384828562000d49565b509392505050565b600082601f830112620009cd57600080fd5b8151620009df8482602086016200089c565b91505092915050565b600082601f830112620009fa57600080fd5b815162000a0c84826020860162000901565b91505092915050565b600082601f83011262000a2757600080fd5b815162000a3984826020860162000976565b91505092915050565b60008151905062000a538162000ed7565b92915050565b600080600080600080600080610100898b03121562000a7757600080fd5b600089015167ffffffffffffffff81111562000a9257600080fd5b62000aa08b828c01620009bb565b985050602089015167ffffffffffffffff81111562000abe57600080fd5b62000acc8b828c01620009bb565b975050604089015167ffffffffffffffff81111562000aea57600080fd5b62000af88b828c01620009e8565b965050606089015167ffffffffffffffff81111562000b1657600080fd5b62000b248b828c01620009e8565b955050608089015167ffffffffffffffff81111562000b4257600080fd5b62000b508b828c0162000a15565b94505060a089015167ffffffffffffffff81111562000b6e57600080fd5b62000b7c8b828c0162000a15565b93505060c062000b8f8b828c0162000a42565b92505060e062000ba28b828c0162000a42565b9150509295985092959890939650565b600062000bbf8262000d23565b62000bcb818562000d2e565b935062000bdd81856020860162000d49565b62000be88162000ec6565b840191505092915050565b62000bfe8162000d3f565b82525050565b6000608082019050818103600083015262000c20818762000bb2565b9050818103602083015262000c36818662000bb2565b905062000c47604083018562000bf3565b818103606083015262000c5b818462000bb2565b905095945050505050565b600062000c7262000c85565b905062000c80828262000db5565b919050565b6000604051905090565b600067ffffffffffffffff82111562000cad5762000cac62000e97565b5b602082029050602081019050919050565b600067ffffffffffffffff82111562000cdc5762000cdb62000e97565b5b602082029050602081019050919050565b600067ffffffffffffffff82111562000d0b5762000d0a62000e97565b5b62000d168262000ec6565b9050602081019050919050565b600081519050919050565b600082825260208201905092915050565b6000819050919050565b60005b8381101562000d6957808201518184015260208101905062000d4c565b8381111562000d79576000848401525b50505050565b6000600282049050600182168062000d9857607f821691505b6020821081141562000daf5762000dae62000e68565b5b50919050565b62000dc08262000ec6565b810181811067ffffffffffffffff8211171562000de25762000de162000e97565b5b80604052505050565b600062000df88262000d3f565b91507fffffffffffffffffffffffffffffffffffffffffffffffffffffffffffffffff82141562000e2e5762000e2d62000e39565b5b600182019050919050565b7f4e487b7100000000000000000000000000000000000000000000000000000000600052601160045260246000fd5b7f4e487b7100000000000000000000000000000000000000000000000000000000600052602260045260246000fd5b7f4e487b7100000000000000000000000000000000000000000000000000000000600052604160045260246000fd5b6000601f19601f8301169050919050565b62000ee28162000d3f565b811462000eee57600080fd5b50565b6149538062000f016000396000f3fe608060405234801561001057600080fd5b50600436106101375760003560e01c80637df124a1116100b8578063a9c326791161007c578063a9c3267914610365578063b88d4fde14610387578063c87b56dd146103a3578063c8cf27f4146103d3578063d4f24c5b146103f1578063e985e9c5146103fb57610137565b80637df124a1146102aa5780638e07cc44146102da57806395d89b41146102f657806398da4c9514610314578063a22cb4651461034957610137565b80631a227bf3116100ff5780631a227bf3146101f457806323b872dd1461021257806342842e0e1461022e5780636352211e1461024a57806370a082311461027a57610137565b806301ffc9a71461013c5780630665f9611461016c57806306fdde031461018a578063081812fc146101a8578063095ea7b3146101d8575b600080fd5b61015660048036038101906101519190613048565b61042b565b60405161016391906138ad565b60405180910390f35b61017461050d565b6040516101819190613c46565b60405180910390f35b610192610669565b60405161019f91906138c8565b60405180910390f35b6101c260048036038101906101bd919061309a565b6106fb565b6040516101cf91906137ed565b60405180910390f35b6101f260048036038101906101ed919061300c565b610780565b005b6101fc610898565b604051610209919061388b565b60405180910390f35b61022c60048036038101906102279190612f06565b610a43565b005b61024860048036038101906102439190612f06565b610aa3565b005b610264600480360381019061025f919061309a565b610ac3565b60405161027191906137ed565b60405180910390f35b610294600480360381019061028f9190612ea1565b610b75565b6040516102a19190613c8a565b60405180910390f35b6102c460048036038101906102bf9190612ea1565b610c2d565b6040516102d19190613c8a565b60405180910390f35b6102f460048036038101906102ef919061309a565b610c45565b005b6102fe611039565b60405161030b91906138c8565b60405180910390f35b61032e6004803603810190610329919061309a565b6110cb565b60405161034096959493929190613ca5565b60405180910390f35b610363600480360381019061035e9190612fd0565b611217565b005b61036d61122d565b60405161037e959493929190613997565b60405180910390f35b6103a1600480360381019061039c9190612f55565b611361565b005b6103bd60048036038101906103b8919061309a565b6113c3565b6040516103ca91906138c8565b60405180910390f35b6103db6115de565b6040516103e89190613c68565b60405180910390f35b6103f96117b6565b005b61041560048036038101906104109190612eca565b611b41565b60405161042291906138ad565b60405180910390f35b60007f80ac58cd000000000000000000000000000000000000000000000000000000007bffffffffffffffffffffffffffffffffffffffffffffffffffffffff1916827bffffffffffffffffffffffffffffffffffffffffffffffffffffffff191614806104f657507f5b5e139f000000000000000000000000000000000000000000000000000000007bffffffffffffffffffffffffffffffffffffffffffffffffffffffff1916827bffffffffffffffffffffffffffffffffffffffffffffffffffffffff1916145b80610506575061050582611c8d565b5b9050919050565b610515612cc8565b600a6040518060a001604052908160008201805461053290613feb565b80601f016020809104026020016040519081016040528092919081815260200182805461055e90613feb565b80156105ab5780601f10610580576101008083540402835291602001916105ab565b820191906000526020600020905b81548152906001019060200180831161058e57829003601f168201915b505050505081526020016001820180546105c490613feb565b80601f01602080910402602001604051908101604052809291908181526020018280546105f090613feb565b801561063d5780601f106106125761010080835404028352916020019161063d565b820191906000526020600020905b81548152906001019060200180831161062057829003601f168201915b505050505081526020016002820154815260200160038201548152602001600482015481525050905090565b60606000805461067890613feb565b80601f01602080910402602001604051908101604052809291908181526020018280546106a490613feb565b80156106f15780601f106106c6576101008083540402835291602001916106f1565b820191906000526020600020905b8154815290600101906020018083116106d457829003601f168201915b5050505050905090565b600061070682611cf7565b610745576040517f08c379a000000000000000000000000000000000000000000000000000000000815260040161073c90613be6565b60405180910390fd5b6004600083815260200190815260200160002060009054906101000a900473ffffffffffffffffffffffffffffffffffffffff169050919050565b600061078b82610ac3565b90508073ffffffffffffffffffffffffffffffffffffffff168373ffffffffffffffffffffffffffffffffffffffff1614156107fc576040517f08c379a00000000000000000000000000000000000000000000000000000000081526004016107f390613c06565b60405180910390fd5b8073ffffffffffffffffffffffffffffffffffffffff1661081b611d63565b73ffffffffffffffffffffffffffffffffffffffff16148061084a575061084981610844611d63565b611b41565b5b610889576040517f08c379a000000000000000000000000000000000000000000000000000000000815260040161088090613b66565b60405180910390fd5b6108938383611d6b565b505050565b60606007805480602002602001604051908101604052809291908181526020016000905b82821015610a3a57838290600052602060002090600602016040518060c0016040529081600082015481526020016001820180546108f990613feb565b80601f016020809104026020016040519081016040528092919081815260200182805461092590613feb565b80156109725780601f1061094757610100808354040283529160200191610972565b820191906000526020600020905b81548152906001019060200180831161095557829003601f168201915b5050505050815260200160028201805461098b90613feb565b80601f01602080910402602001604051908101604052809291908181526020018280546109b790613feb565b8015610a045780601f106109d957610100808354040283529160200191610a04565b820191906000526020600020905b8154815290600101906020018083116109e757829003601f168201915b505050505081526020016003820154815260200160048201548152602001600582015481525050815260200190600101906108bc565b50505050905090565b610a54610a4e611d63565b82611e24565b610a93576040517f08c379a0000000000000000000000000000000000000000000000000000000008152600401610a8a90613c26565b60405180910390fd5b610a9e838383611f02565b505050565b610abe83838360405180602001604052806000815250611361565b505050565b6000806002600084815260200190815260200160002060009054906101000a900473ffffffffffffffffffffffffffffffffffffffff169050600073ffffffffffffffffffffffffffffffffffffffff168173ffffffffffffffffffffffffffffffffffffffff161415610b6c576040517f08c379a0000000000000000000000000000000000000000000000000000000008152600401610b6390613ba6565b60405180910390fd5b80915050919050565b60008073ffffffffffffffffffffffffffffffffffffffff168273ffffffffffffffffffffffffffffffffffffffff161415610be6576040517f08c379a0000000000000000000000000000000000000000000000000000000008152600401610bdd90613b86565b60405180910390fd5b600360008373ffffffffffffffffffffffffffffffffffffffff1673ffffffffffffffffffffffffffffffffffffffff168152602001908152602001600020549050919050565b60096020528060005260406000206000915090505481565b6000610c516006612169565b9050610c5d3382612177565b6040518060c0016040528083815260200160078481548110610ca8577f4e487b7100000000000000000000000000000000000000000000000000000000600052603260045260246000fd5b90600052602060002090600602016001018054610cc490613feb565b80601f0160208091040260200160405190810160405280929190818152602001828054610cf090613feb565b8015610d3d5780601f10610d1257610100808354040283529160200191610d3d565b820191906000526020600020905b815481529060010190602001808311610d2057829003601f168201915b5050505050815260200160078481548110610d81577f4e487b7100000000000000000000000000000000000000000000000000000000600052603260045260246000fd5b90600052602060002090600602016002018054610d9d90613feb565b80601f0160208091040260200160405190810160405280929190818152602001828054610dc990613feb565b8015610e165780601f10610deb57610100808354040283529160200191610e16565b820191906000526020600020905b815481529060010190602001808311610df957829003601f168201915b5050505050815260200160078481548110610e5a577f4e487b7100000000000000000000000000000000000000000000000000000000600052603260045260246000fd5b906000526020600020906006020160030154815260200160078481548110610eab577f4e487b7100000000000000000000000000000000000000000000000000000000600052603260045260246000fd5b906000526020600020906006020160040154815260200160078481548110610efc577f4e487b7100000000000000000000000000000000000000000000000000000000600052603260045260246000fd5b90600052602060002090600602016005015481525060086000838152602001908152602001600020600082015181600001556020820151816001019080519060200190610f4a929190612cf7565b506040820151816002019080519060200190610f67929190612cf7565b50606082015181600301556080820151816004015560a08201518160050155905050610fac6040518060600160405280602e815260200161484c602e91398284612195565b80600960003373ffffffffffffffffffffffffffffffffffffffff1673ffffffffffffffffffffffffffffffffffffffff16815260200190815260200160002081905550610ffa6006611c77565b7f5e2cf340f19698c8588fa83db5142d088412c91595f4ef9bd4e7ac27c9199aab33828460405161102d93929190613854565b60405180910390a15050565b60606001805461104890613feb565b80601f016020809104026020016040519081016040528092919081815260200182805461107490613feb565b80156110c15780601f10611096576101008083540402835291602001916110c1565b820191906000526020600020905b8154815290600101906020018083116110a457829003601f168201915b5050505050905090565b60086020528060005260406000206000915090508060000154908060010180546110f490613feb565b80601f016020809104026020016040519081016040528092919081815260200182805461112090613feb565b801561116d5780601f106111425761010080835404028352916020019161116d565b820191906000526020600020905b81548152906001019060200180831161115057829003601f168201915b50505050509080600201805461118290613feb565b80601f01602080910402602001604051908101604052809291908181526020018280546111ae90613feb565b80156111fb5780601f106111d0576101008083540402835291602001916111fb565b820191906000526020600020905b8154815290600101906020018083116111de57829003601f168201915b5050505050908060030154908060040154908060050154905086565b611229611222611d63565b8383612234565b5050565b600a80600001805461123e90613feb565b80601f016020809104026020016040519081016040528092919081815260200182805461126a90613feb565b80156112b75780601f1061128c576101008083540402835291602001916112b7565b820191906000526020600020905b81548152906001019060200180831161129a57829003601f168201915b5050505050908060010180546112cc90613feb565b80601f01602080910402602001604051908101604052809291908181526020018280546112f890613feb565b80156113455780601f1061131a57610100808354040283529160200191611345565b820191906000526020600020905b81548152906001019060200180831161132857829003601f168201915b5050505050908060020154908060030154908060040154905085565b61137261136c611d63565b83611e24565b6113b1576040517f08c379a00000000000000000000000000000000000000000000000000000000081526004016113a890613c26565b60405180910390fd5b6113bd848484846123a1565b50505050565b60606000600860008481526020019081526020016000206040518060c0016040529081600082015481526020016001820180546113ff90613feb565b80601f016020809104026020016040519081016040528092919081815260200182805461142b90613feb565b80156114785780601f1061144d57610100808354040283529160200191611478565b820191906000526020600020905b81548152906001019060200180831161145b57829003601f168201915b5050505050815260200160028201805461149190613feb565b80601f01602080910402602001604051908101604052809291908181526020018280546114bd90613feb565b801561150a5780601f106114df5761010080835404028352916020019161150a565b820191906000526020600020905b8154815290600101906020018083116114ed57829003601f168201915b5050505050815260200160038201548152602001600482015481526020016005820154815250509050600061154282606001516123fd565b9050600061155383608001516123fd565b905060006115648460a001516123fd565b905060006115aa8560200151611579896123fd565b876040015187878760405160200161159696959493929190613726565b6040516020818303038152906040526125aa565b90506000816040516020016115bf91906137cb565b6040516020818303038152906040529050809650505050505050919050565b6115e6612d7d565b6000600960003373ffffffffffffffffffffffffffffffffffffffff1673ffffffffffffffffffffffffffffffffffffffff16815260200190815260200160002054905060008111156117a557600860008281526020019081526020016000206040518060c00160405290816000820154815260200160018201805461166b90613feb565b80601f016020809104026020016040519081016040528092919081815260200182805461169790613feb565b80156116e45780601f106116b9576101008083540402835291602001916116e4565b820191906000526020600020905b8154815290600101906020018083116116c757829003601f168201915b505050505081526020016002820180546116fd90613feb565b80601f016020809104026020016040519081016040528092919081815260200182805461172990613feb565b80156117765780601f1061174b57610100808354040283529160200191611776565b820191906000526020600020905b81548152906001019060200180831161175957829003601f168201915b5050505050815260200160038201548152602001600482015481526020016005820154815250509150506117b3565b6117ad612d7d565b80925050505b90565b6000600960003373ffffffffffffffffffffffffffffffffffffffff1673ffffffffffffffffffffffffffffffffffffffff16815260200190815260200160002054905060006008600083815260200190815260200160002090506118c96040518060600160405280603c81526020016148e2603c913982600101805461183c90613feb565b80601f016020809104026020016040519081016040528092919081815260200182805461186890613feb565b80156118b55780601f1061188a576101008083540402835291602001916118b5565b820191906000526020600020905b81548152906001019060200180831161189857829003601f168201915b505050505083600301548460050154612768565b6119a16040518060400160405280601b81526020017f426f73732025732068617320257320485020616e642025732041440000000000815250600a600001805461191290613feb565b80601f016020809104026020016040519081016040528092919081815260200182805461193e90613feb565b801561198b5780601f106119605761010080835404028352916020019161198b565b820191906000526020600020905b81548152906001019060200180831161196e57829003601f168201915b5050505050600a60020154600a60040154612768565b60008160030154116119e8576040517f08c379a00000000000000000000000000000000000000000000000000000000081526004016119df90613b46565b60405180910390fd5b6000600a6002015411611a30576040517f08c379a0000000000000000000000000000000000000000000000000000000008152600401611a2790613ac6565b60405180910390fd5b8060050154600a600201541015611a51576000600a60020181905550611a70565b8060050154600a60020154611a669190613f01565b600a600201819055505b600a6004015481600301541015611a905760008160030181905550611aae565b600a600401548160030154611aa59190613f01565b81600301819055505b611ad560405180606001604052806025815260200161482760259139600a6002015461280a565b611afb6040518060600160405280602881526020016148ba60289139826003015461280a565b7f838ab28464562786a6c4ab2311964b82fa60bd9b14aa7e856af1f3f18d41a414600a600201548260030154604051611b35929190613d14565b60405180910390a15050565b6000600560008473ffffffffffffffffffffffffffffffffffffffff1673ffffffffffffffffffffffffffffffffffffffff16815260200190815260200160002060008373ffffffffffffffffffffffffffffffffffffffff1673ffffffffffffffffffffffffffffffffffffffff16815260200190815260200160002060009054906101000a900460ff16905092915050565b611c7184848484604051602401611bef94939291906138ea565b6040516020818303038152906040527f8d142cdd000000000000000000000000000000000000000000000000000000007bffffffffffffffffffffffffffffffffffffffffffffffffffffffff19166020820180517bffffffffffffffffffffffffffffffffffffffffffffffffffffffff83818316178352505050506128a6565b50505050565b6001816000016000828254019250508190555050565b60007f01ffc9a7000000000000000000000000000000000000000000000000000000007bffffffffffffffffffffffffffffffffffffffffffffffffffffffff1916827bffffffffffffffffffffffffffffffffffffffffffffffffffffffff1916149050919050565b60008073ffffffffffffffffffffffffffffffffffffffff166002600084815260200190815260200160002060009054906101000a900473ffffffffffffffffffffffffffffffffffffffff1673ffffffffffffffffffffffffffffffffffffffff1614159050919050565b600033905090565b816004600083815260200190815260200160002060006101000a81548173ffffffffffffffffffffffffffffffffffffffff021916908373ffffffffffffffffffffffffffffffffffffffff160217905550808273ffffffffffffffffffffffffffffffffffffffff16611dde83610ac3565b73ffffffffffffffffffffffffffffffffffffffff167f8c5be1e5ebec7d5bd14f71427d1e84f3dd0314c0f7b2291e5b200ac8c7c3b92560405160405180910390a45050565b6000611e2f82611cf7565b611e6e576040517f08c379a0000000000000000000000000000000000000000000000000000000008152600401611e6590613b26565b60405180910390fd5b6000611e7983610ac3565b90508073ffffffffffffffffffffffffffffffffffffffff168473ffffffffffffffffffffffffffffffffffffffff161480611ee857508373ffffffffffffffffffffffffffffffffffffffff16611ed0846106fb565b73ffffffffffffffffffffffffffffffffffffffff16145b80611ef95750611ef88185611b41565b5b91505092915050565b8273ffffffffffffffffffffffffffffffffffffffff16611f2282610ac3565b73ffffffffffffffffffffffffffffffffffffffff1614611f78576040517f08c379a0000000000000000000000000000000000000000000000000000000008152600401611f6f90613a86565b60405180910390fd5b600073ffffffffffffffffffffffffffffffffffffffff168273ffffffffffffffffffffffffffffffffffffffff161415611fe8576040517f08c379a0000000000000000000000000000000000000000000000000000000008152600401611fdf90613ae6565b60405180910390fd5b611ff38383836128cf565b611ffe600082611d6b565b6001600360008573ffffffffffffffffffffffffffffffffffffffff1673ffffffffffffffffffffffffffffffffffffffff168152602001908152602001600020600082825461204e9190613f01565b925050819055506001600360008473ffffffffffffffffffffffffffffffffffffffff1673ffffffffffffffffffffffffffffffffffffffff16815260200190815260200160002060008282546120a59190613e20565b92505081905550816002600083815260200190815260200160002060006101000a81548173ffffffffffffffffffffffffffffffffffffffff021916908373ffffffffffffffffffffffffffffffffffffffff160217905550808273ffffffffffffffffffffffffffffffffffffffff168473ffffffffffffffffffffffffffffffffffffffff167fddf252ad1be2c89b69c2b068fc378daa952ba7f163c4a11628f55a4df523b3ef60405160405180910390a46121648383836128d4565b505050565b600081600001549050919050565b6121918282604051806020016040528060008152506128d9565b5050565b61222f8383836040516024016121ad93929190613a28565b6040516020818303038152906040527f969cdd03000000000000000000000000000000000000000000000000000000007bffffffffffffffffffffffffffffffffffffffffffffffffffffffff19166020820180517bffffffffffffffffffffffffffffffffffffffffffffffffffffffff83818316178352505050506128a6565b505050565b8173ffffffffffffffffffffffffffffffffffffffff168373ffffffffffffffffffffffffffffffffffffffff1614156122a3576040517f08c379a000000000000000000000000000000000000000000000000000000000815260040161229a90613b06565b60405180910390fd5b80600560008573ffffffffffffffffffffffffffffffffffffffff1673ffffffffffffffffffffffffffffffffffffffff16815260200190815260200160002060008473ffffffffffffffffffffffffffffffffffffffff1673ffffffffffffffffffffffffffffffffffffffff16815260200190815260200160002060006101000a81548160ff0219169083151502179055508173ffffffffffffffffffffffffffffffffffffffff168373ffffffffffffffffffffffffffffffffffffffff167f17307eab39ab6107e8899845ad3d59bd9653f200f220920489ca2b5937696c318360405161239491906138ad565b60405180910390a3505050565b6123ac848484611f02565b6123b884848484612934565b6123f7576040517f08c379a00000000000000000000000000000000000000000000000000000000081526004016123ee90613a66565b60405180910390fd5b50505050565b60606000821415612445576040518060400160405280600181526020017f300000000000000000000000000000000000000000000000000000000000000081525090506125a5565b600082905060005b600082146124775780806124609061404e565b915050600a826124709190613e76565b915061244d565b60008167ffffffffffffffff8111156124b9577f4e487b7100000000000000000000000000000000000000000000000000000000600052604160045260246000fd5b6040519080825280601f01601f1916602001820160405280156124eb5781602001600182028036833780820191505090505b5090505b6000851461259e576001826125049190613f01565b9150600a856125139190614097565b603061251f9190613e20565b60f81b81838151811061255b577f4e487b7100000000000000000000000000000000000000000000000000000000600052603260045260246000fd5b60200101907effffffffffffffffffffffffffffffffffffffffffffffffffffffffffffff1916908160001a905350600a856125979190613e76565b94506124ef565b8093505050505b919050565b606060008251905060008114156125d35760405180602001604052806000815250915050612763565b600060036002836125e49190613e20565b6125ee9190613e76565b60046125fa9190613ea7565b9050600060208261260b9190613e20565b67ffffffffffffffff81111561264a577f4e487b7100000000000000000000000000000000000000000000000000000000600052604160045260246000fd5b6040519080825280601f01601f19166020018201604052801561267c5781602001600182028036833780820191505090505b509050600060405180606001604052806040815260200161487a604091399050600181016020830160005b868110156127205760038101905062ffffff818a015116603f8160121c168401518060081b905060ff603f83600c1c1686015116810190508060081b905060ff603f8360061c1686015116810190508060081b905060ff603f831686015116810190508060e01b905080845260048401935050506126a7565b50600386066001811461273a576002811461274a57612755565b613d3d60f01b6002830352612755565b603d60f81b60018303525b508484525050819450505050505b919050565b612804848484846040516024016127829493929190613944565b6040516020818303038152906040527fd5cf17d0000000000000000000000000000000000000000000000000000000007bffffffffffffffffffffffffffffffffffffffffffffffffffffffff19166020820180517bffffffffffffffffffffffffffffffffffffffffffffffffffffffff83818316178352505050506128a6565b50505050565b6128a282826040516024016128209291906139f8565b6040516020818303038152906040527f9710a9d0000000000000000000000000000000000000000000000000000000007bffffffffffffffffffffffffffffffffffffffffffffffffffffffff19166020820180517bffffffffffffffffffffffffffffffffffffffffffffffffffffffff83818316178352505050506128a6565b5050565b60008151905060006a636f6e736f6c652e6c6f679050602083016000808483855afa5050505050565b505050565b505050565b6128e38383612acb565b6128f06000848484612934565b61292f576040517f08c379a000000000000000000000000000000000000000000000000000000000815260040161292690613a66565b60405180910390fd5b505050565b60006129558473ffffffffffffffffffffffffffffffffffffffff16612ca5565b15612abe578373ffffffffffffffffffffffffffffffffffffffff1663150b7a0261297e611d63565b8786866040518563ffffffff1660e01b81526004016129a09493929190613808565b602060405180830381600087803b1580156129ba57600080fd5b505af19250505080156129eb57506040513d601f19601f820116820180604052508101906129e89190613071565b60015b612a6e573d8060008114612a1b576040519150601f19603f3d011682016040523d82523d6000602084013e612a20565b606091505b50600081511415612a66576040517f08c379a0000000000000000000000000000000000000000000000000000000008152600401612a5d90613a66565b60405180910390fd5b805181602001fd5b63150b7a0260e01b7bffffffffffffffffffffffffffffffffffffffffffffffffffffffff1916817bffffffffffffffffffffffffffffffffffffffffffffffffffffffff191614915050612ac3565b600190505b949350505050565b600073ffffffffffffffffffffffffffffffffffffffff168273ffffffffffffffffffffffffffffffffffffffff161415612b3b576040517f08c379a0000000000000000000000000000000000000000000000000000000008152600401612b3290613bc6565b60405180910390fd5b612b4481611cf7565b15612b84576040517f08c379a0000000000000000000000000000000000000000000000000000000008152600401612b7b90613aa6565b60405180910390fd5b612b90600083836128cf565b6001600360008473ffffffffffffffffffffffffffffffffffffffff1673ffffffffffffffffffffffffffffffffffffffff1681526020019081526020016000206000828254612be09190613e20565b92505081905550816002600083815260200190815260200160002060006101000a81548173ffffffffffffffffffffffffffffffffffffffff021916908373ffffffffffffffffffffffffffffffffffffffff160217905550808273ffffffffffffffffffffffffffffffffffffffff16600073ffffffffffffffffffffffffffffffffffffffff167fddf252ad1be2c89b69c2b068fc378daa952ba7f163c4a11628f55a4df523b3ef60405160405180910390a4612ca1600083836128d4565b5050565b6000808273ffffffffffffffffffffffffffffffffffffffff163b119050919050565b6040518060a0016040528060608152602001606081526020016000815260200160008152602001600081525090565b828054612d0390613feb565b90600052602060002090601f016020900481019282612d255760008555612d6c565b82601f10612d3e57805160ff1916838001178555612d6c565b82800160010185558215612d6c579182015b82811115612d6b578251825591602001919060010190612d50565b5b509050612d799190612db3565b5090565b6040518060c001604052806000815260200160608152602001606081526020016000815260200160008152602001600081525090565b5b80821115612dcc576000816000905550600101612db4565b5090565b6000612de3612dde84613d62565b613d3d565b905082815260208101848484011115612dfb57600080fd5b612e06848285613fa9565b509392505050565b600081359050612e1d816147ca565b92915050565b600081359050612e32816147e1565b92915050565b600081359050612e47816147f8565b92915050565b600081519050612e5c816147f8565b92915050565b600082601f830112612e7357600080fd5b8135612e83848260208601612dd0565b91505092915050565b600081359050612e9b8161480f565b92915050565b600060208284031215612eb357600080fd5b6000612ec184828501612e0e565b91505092915050565b60008060408385031215612edd57600080fd5b6000612eeb85828601612e0e565b9250506020612efc85828601612e0e565b9150509250929050565b600080600060608486031215612f1b57600080fd5b6000612f2986828701612e0e565b9350506020612f3a86828701612e0e565b9250506040612f4b86828701612e8c565b9150509250925092565b60008060008060808587031215612f6b57600080fd5b6000612f7987828801612e0e565b9450506020612f8a87828801612e0e565b9350506040612f9b87828801612e8c565b925050606085013567ffffffffffffffff811115612fb857600080fd5b612fc487828801612e62565b91505092959194509250565b60008060408385031215612fe357600080fd5b6000612ff185828601612e0e565b925050602061300285828601612e23565b9150509250929050565b6000806040838503121561301f57600080fd5b600061302d85828601612e0e565b925050602061303e85828601612e8c565b9150509250929050565b60006020828403121561305a57600080fd5b600061306884828501612e38565b91505092915050565b60006020828403121561308357600080fd5b600061309184828501612e4d565b91505092915050565b6000602082840312156130ac57600080fd5b60006130ba84828501612e8c565b91505092915050565b60006130cf83836135e8565b905092915050565b6130e081613f35565b82525050565b60006130f182613da3565b6130fb8185613dd1565b93508360208202850161310d85613d93565b8060005b85811015613149578484038952815161312a85826130c3565b945061313583613dc4565b925060208a01995050600181019050613111565b50829750879550505050505092915050565b61316481613f47565b82525050565b600061317582613dae565b61317f8185613de2565b935061318f818560208601613fb8565b61319881614184565b840191505092915050565b60006131ae82613db9565b6131b88185613df3565b93506131c8818560208601613fb8565b6131d181614184565b840191505092915050565b60006131e782613db9565b6131f18185613e04565b9350613201818560208601613fb8565b61320a81614184565b840191505092915050565b600061322082613db9565b61322a8185613e15565b935061323a818560208601613fb8565b80840191505092915050565b6000613253600b83613e15565b915061325e82614195565b600b82019050919050565b6000613276603283613e04565b9150613281826141be565b604082019050919050565b6000613299602583613e04565b91506132a48261420d565b604082019050919050565b60006132bc601c83613e04565b91506132c78261425c565b602082019050919050565b60006132df602783613e04565b91506132ea82614285565b604082019050919050565b6000613302600e83613e15565b915061330d826142d4565b600e82019050919050565b6000613325602483613e04565b9150613330826142fd565b604082019050919050565b6000613348601983613e04565b91506133538261434c565b602082019050919050565b600061336b602c83613e04565b915061337682614375565b604082019050919050565b600061338e606e83613e15565b9150613399826143c4565b606e82019050919050565b60006133b1603183613e04565b91506133bc8261445f565b604082019050919050565b60006133d4603883613e04565b91506133df826144ae565b604082019050919050565b60006133f7602a83613e04565b9150613402826144fd565b604082019050919050565b600061341a602983613e04565b91506134258261454c565b604082019050919050565b600061343d600483613e15565b91506134488261459b565b600482019050919050565b6000613460602083613e04565b915061346b826145c4565b602082019050919050565b6000613483602c83613e04565b915061348e826145ed565b604082019050919050565b60006134a6600a83613e15565b91506134b18261463c565b600a82019050919050565b60006134c9602183613e04565b91506134d482614665565b604082019050919050565b60006134ec601d83613e15565b91506134f7826146b4565b601d82019050919050565b600061350f603183613e04565b915061351a826146dd565b604082019050919050565b6000613532603d83613e15565b915061353d8261472c565b603d82019050919050565b6000613555602d83613e15565b91506135608261477b565b602d82019050919050565b600060a083016000830151848203600086015261358882826131a3565b915050602083015184820360208601526135a282826131a3565b91505060408301516135b76040860182613708565b5060608301516135ca6060860182613708565b5060808301516135dd6080860182613708565b508091505092915050565b600060c0830160008301516136006000860182613708565b506020830151848203602086015261361882826131a3565b9150506040830151848203604086015261363282826131a3565b91505060608301516136476060860182613708565b50608083015161365a6080860182613708565b5060a083015161366d60a0860182613708565b508091505092915050565b600060c0830160008301516136906000860182613708565b50602083015184820360208601526136a882826131a3565b915050604083015184820360408601526136c282826131a3565b91505060608301516136d76060860182613708565b5060808301516136ea6080860182613708565b5060a08301516136fd60a0860182613708565b508091505092915050565b61371181613f9f565b82525050565b61372081613f9f565b82525050565b600061373182613499565b915061373d8289613215565b915061374882613246565b91506137548288613215565b915061375f82613381565b915061376b8287613215565b915061377682613525565b91506137828286613215565b915061378d826132f5565b91506137998285613215565b91506137a482613548565b91506137b08284613215565b91506137bb82613430565b9150819050979650505050505050565b60006137d6826134df565b91506137e28284613215565b915081905092915050565b600060208201905061380260008301846130d7565b92915050565b600060808201905061381d60008301876130d7565b61382a60208301866130d7565b6138376040830185613717565b8181036060830152613849818461316a565b905095945050505050565b600060608201905061386960008301866130d7565b6138766020830185613717565b6138836040830184613717565b949350505050565b600060208201905081810360008301526138a581846130e6565b905092915050565b60006020820190506138c2600083018461315b565b92915050565b600060208201905081810360008301526138e281846131dc565b905092915050565b6000608082019050818103600083015261390481876131dc565b9050818103602083015261391881866131dc565b90506139276040830185613717565b818103606083015261393981846131dc565b905095945050505050565b6000608082019050818103600083015261395e81876131dc565b9050818103602083015261397281866131dc565b90506139816040830185613717565b61398e6060830184613717565b95945050505050565b600060a08201905081810360008301526139b181886131dc565b905081810360208301526139c581876131dc565b90506139d46040830186613717565b6139e16060830185613717565b6139ee6080830184613717565b9695505050505050565b60006040820190508181036000830152613a1281856131dc565b9050613a216020830184613717565b9392505050565b60006060820190508181036000830152613a4281866131dc565b9050613a516020830185613717565b613a5e6040830184613717565b949350505050565b60006020820190508181036000830152613a7f81613269565b9050919050565b60006020820190508181036000830152613a9f8161328c565b9050919050565b60006020820190508181036000830152613abf816132af565b9050919050565b60006020820190508181036000830152613adf816132d2565b9050919050565b60006020820190508181036000830152613aff81613318565b9050919050565b60006020820190508181036000830152613b1f8161333b565b9050919050565b60006020820190508181036000830152613b3f8161335e565b9050919050565b60006020820190508181036000830152613b5f816133a4565b9050919050565b60006020820190508181036000830152613b7f816133c7565b9050919050565b60006020820190508181036000830152613b9f816133ea565b9050919050565b60006020820190508181036000830152613bbf8161340d565b9050919050565b60006020820190508181036000830152613bdf81613453565b9050919050565b60006020820190508181036000830152613bff81613476565b9050919050565b60006020820190508181036000830152613c1f816134bc565b9050919050565b60006020820190508181036000830152613c3f81613502565b9050919050565b60006020820190508181036000830152613c60818461356b565b905092915050565b60006020820190508181036000830152613c828184613678565b905092915050565b6000602082019050613c9f6000830184613717565b92915050565b600060c082019050613cba6000830189613717565b8181036020830152613ccc81886131dc565b90508181036040830152613ce081876131dc565b9050613cef6060830186613717565b613cfc6080830185613717565b613d0960a0830184613717565b979650505050505050565b6000604082019050613d296000830185613717565b613d366020830184613717565b9392505050565b6000613d47613d58565b9050613d53828261401d565b919050565b6000604051905090565b600067ffffffffffffffff821115613d7d57613d7c614155565b5b613d8682614184565b9050602081019050919050565b6000819050602082019050919050565b600081519050919050565b600081519050919050565b600081519050919050565b6000602082019050919050565b600082825260208201905092915050565b600082825260208201905092915050565b600082825260208201905092915050565b600082825260208201905092915050565b600081905092915050565b6000613e2b82613f9f565b9150613e3683613f9f565b9250827fffffffffffffffffffffffffffffffffffffffffffffffffffffffffffffffff03821115613e6b57613e6a6140c8565b5b828201905092915050565b6000613e8182613f9f565b9150613e8c83613f9f565b925082613e9c57613e9b6140f7565b5b828204905092915050565b6000613eb282613f9f565b9150613ebd83613f9f565b9250817fffffffffffffffffffffffffffffffffffffffffffffffffffffffffffffffff0483118215151615613ef657613ef56140c8565b5b828202905092915050565b6000613f0c82613f9f565b9150613f1783613f9f565b925082821015613f2a57613f296140c8565b5b828203905092915050565b6000613f4082613f7f565b9050919050565b60008115159050919050565b60007fffffffff0000000000000000000000000000000000000000000000000000000082169050919050565b600073ffffffffffffffffffffffffffffffffffffffff82169050919050565b6000819050919050565b82818337600083830152505050565b60005b83811015613fd6578082015181840152602081019050613fbb565b83811115613fe5576000848401525b50505050565b6000600282049050600182168061400357607f821691505b6020821081141561401757614016614126565b5b50919050565b61402682614184565b810181811067ffffffffffffffff8211171561404557614044614155565b5b80604052505050565b600061405982613f9f565b91507fffffffffffffffffffffffffffffffffffffffffffffffffffffffffffffffff82141561408c5761408b6140c8565b5b600182019050919050565b60006140a282613f9f565b91506140ad83613f9f565b9250826140bd576140bc6140f7565b5b828206905092915050565b7f4e487b7100000000000000000000000000000000000000000000000000000000600052601160045260246000fd5b7f4e487b7100000000000000000000000000000000000000000000000000000000600052601260045260246000fd5b7f4e487b7100000000000000000000000000000000000000000000000000000000600052602260045260246000fd5b7f4e487b7100000000000000000000000000000000000000000000000000000000600052604160045260246000fd5b6000601f19601f8301169050919050565b7f202d2d204e465420233a20000000000000000000000000000000000000000000600082015250565b7f4552433732313a207472616e7366657220746f206e6f6e20455243373231526560008201527f63656976657220696d706c656d656e7465720000000000000000000000000000602082015250565b7f4552433732313a207472616e736665722066726f6d20696e636f72726563742060008201527f6f776e6572000000000000000000000000000000000000000000000000000000602082015250565b7f4552433732313a20746f6b656e20616c7265616479206d696e74656400000000600082015250565b7f4572726f723a20626f7373206d757374206861766520485020746f206174746160008201527f636b20626f737300000000000000000000000000000000000000000000000000602082015250565b7f2c20226d61785f76616c7565223a000000000000000000000000000000000000600082015250565b7f4552433732313a207472616e7366657220746f20746865207a65726f2061646460008201527f7265737300000000000000000000000000000000000000000000000000000000602082015250565b7f4552433732313a20617070726f766520746f2063616c6c657200000000000000600082015250565b7f4552433732313a206f70657261746f7220717565727920666f72206e6f6e657860008201527f697374656e7420746f6b656e0000000000000000000000000000000000000000602082015250565b7f222c20226465736372697074696f6e223a20225468697320697320616e204e4660008201527f542074686174206c6574732070656f706c6520706c617920696e20746865206760208201527f616d65204d657461766572736520426f737320426174746c6521222c2022696d60408201527f616765223a2022697066733a2f2f000000000000000000000000000000000000606082015250565b7f4572726f723a20596f7572206865726f206d757374206861766520485020746f60008201527f2061747461636b2074686520626f737321000000000000000000000000000000602082015250565b7f4552433732313a20617070726f76652063616c6c6572206973206e6f74206f7760008201527f6e6572206e6f7220617070726f76656420666f7220616c6c0000000000000000602082015250565b7f4552433732313a2062616c616e636520717565727920666f7220746865207a6560008201527f726f206164647265737300000000000000000000000000000000000000000000602082015250565b7f4552433732313a206f776e657220717565727920666f72206e6f6e657869737460008201527f656e7420746f6b656e0000000000000000000000000000000000000000000000602082015250565b7f7d205d7d00000000000000000000000000000000000000000000000000000000600082015250565b7f4552433732313a206d696e7420746f20746865207a65726f2061646472657373600082015250565b7f4552433732313a20617070726f76656420717565727920666f72206e6f6e657860008201527f697374656e7420746f6b656e0000000000000000000000000000000000000000602082015250565b7f7b226e616d65223a202200000000000000000000000000000000000000000000600082015250565b7f4552433732313a20617070726f76616c20746f2063757272656e74206f776e6560008201527f7200000000000000000000000000000000000000000000000000000000000000602082015250565b7f646174613a6170706c69636174696f6e2f6a736f6e3b6261736536342c000000600082015250565b7f4552433732313a207472616e736665722063616c6c6572206973206e6f74206f60008201527f776e6572206e6f7220617070726f766564000000000000000000000000000000602082015250565b7f222c202261747472696275746573223a205b207b202274726169745f7479706560008201527f223a20224865616c746820506f696e7473222c202276616c7565223a20000000602082015250565b7f7d2c207b202274726169745f74797065223a202241747461636b2044616d616760008201527f65222c202276616c7565223a2000000000000000000000000000000000000000602082015250565b6147d381613f35565b81146147de57600080fd5b50565b6147ea81613f47565b81146147f557600080fd5b50565b61480181613f53565b811461480c57600080fd5b50565b61481881613f9f565b811461482357600080fd5b5056fe506c617965722061747461636b656420626f73732e204e657720626f73732068703a2025734d696e746564204e465420772f20746f6b656e494420257320616e6420636861726163746572496e6465782025734142434445464748494a4b4c4d4e4f505152535455565758595a6162636465666768696a6b6c6d6e6f707172737475767778797a303132333435363738392b2f426f73732061747461636b656420706c617965722e204e657720706c617965722068703a2025730a0a506c6179657220772f206368617261637465722025732061626f757420746f2061747461636b2e2048617320257320485020616e64202573204144a26469706673582212203985f0732463d1017a3f8e2ad1c2fcace802ea4abb861044630e4bd7b41bfcdc64736f6c63430008010033446f6e6520696e697469616c697a696e6720257320772f2048502025732c20696d67202573446f6e6520696e697469616c697a696e6720626f737320257320772f2048502025732c20696d67202573",
  "linkReferences": {},
  "deployedLinkReferences": {}
}